{
  "contractName": "MathMock",
  "abi": [
    {
      "constant": true,
      "inputs": [],
      "name": "result256",
      "outputs": [
        {
          "name": "",
          "type": "uint256"
        }
      ],
      "payable": false,
      "stateMutability": "view",
      "type": "function"
    },
    {
      "constant": true,
      "inputs": [],
      "name": "result64",
      "outputs": [
        {
          "name": "",
          "type": "uint64"
        }
      ],
      "payable": false,
      "stateMutability": "view",
      "type": "function"
    },
    {
      "constant": false,
      "inputs": [
        {
          "name": "a",
          "type": "uint64"
        },
        {
          "name": "b",
          "type": "uint64"
        }
      ],
      "name": "max64",
      "outputs": [],
      "payable": false,
      "stateMutability": "nonpayable",
      "type": "function"
    },
    {
      "constant": false,
      "inputs": [
        {
          "name": "a",
          "type": "uint64"
        },
        {
          "name": "b",
          "type": "uint64"
        }
      ],
      "name": "min64",
      "outputs": [],
      "payable": false,
      "stateMutability": "nonpayable",
      "type": "function"
    },
    {
      "constant": false,
      "inputs": [
        {
          "name": "a",
          "type": "uint256"
        },
        {
          "name": "b",
          "type": "uint256"
        }
      ],
      "name": "max256",
      "outputs": [],
      "payable": false,
      "stateMutability": "nonpayable",
      "type": "function"
    },
    {
      "constant": false,
      "inputs": [
        {
          "name": "a",
          "type": "uint256"
        },
        {
          "name": "b",
          "type": "uint256"
        }
      ],
      "name": "min256",
      "outputs": [],
      "payable": false,
      "stateMutability": "nonpayable",
      "type": "function"
    }
  ],
  "bytecode": "0x608060405234801561001057600080fd5b50610356806100206000396000f300608060405260043610610078576000357c0100000000000000000000000000000000000000000000000000000000900463ffffffff1680630c255c941461007d57806336b1315c146100b45780633a4faf7f146100ff5780634b820d1d1461014a57806378f23d4614610175578063b1e9292f146101b4575b600080fd5b34801561008957600080fd5b506100b260048036038101908080359060200190929190803590602001909291905050506101eb565b005b3480156100c057600080fd5b506100fd600480360381019080803567ffffffffffffffff169060200190929190803567ffffffffffffffff1690602001909291905050506101ff565b005b34801561010b57600080fd5b50610148600480360381019080803567ffffffffffffffff169060200190929190803567ffffffffffffffff169060200190929190505050610234565b005b34801561015657600080fd5b5061015f610269565b6040518082815260200191505060405180910390f35b34801561018157600080fd5b5061018a61026f565b604051808267ffffffffffffffff1667ffffffffffffffff16815260200191505060405180910390f35b3480156101c057600080fd5b506101e96004803603810190808035906020019092919080359060200190929190505050610288565b005b6101f5828261029c565b6001819055505050565b61020982826102b6565b6000806101000a81548167ffffffffffffffff021916908367ffffffffffffffff1602179055505050565b61023e82826102e3565b6000806101000a81548167ffffffffffffffff021916908367ffffffffffffffff1602179055505050565b60015481565b6000809054906101000a900467ffffffffffffffff1681565b6102928282610311565b6001819055505050565b6000818310156102ac57816102ae565b825b905092915050565b60008167ffffffffffffffff168367ffffffffffffffff16106102d957816102db565b825b905092915050565b60008167ffffffffffffffff168367ffffffffffffffff1610156103075781610309565b825b905092915050565b60008183106103205781610322565b825b9050929150505600a165627a7a72305820d30b480dc7e41c647d59ab13a2de22e8c7f4bcf26106ccfbe31a18dd13d56aa20029",
  "source": "pragma solidity ^0.4.24;\n\n\nimport \"../../contracts/math/Math.sol\";\n\n\ncontract MathMock {\n  uint64 public result64;\n  uint256 public result256;\n\n  function max64(uint64 a, uint64 b) public {\n    result64 = Math.max64(a, b);\n  }\n\n  function min64(uint64 a, uint64 b) public {\n    result64 = Math.min64(a, b);\n  }\n\n  function max256(uint256 a, uint256 b) public {\n    result256 = Math.max256(a, b);\n  }\n\n  function min256(uint256 a, uint256 b) public {\n    result256 = Math.min256(a, b);\n  }\n}\n",
  "sourcePath": "/home/spalladino/Projects/openzeppelin-zos/contracts/mocks/MathMock.sol",
  "compiler": {
    "name": "solc",
    "version": "0.4.24+commit.e67f0147.Emscripten.clang"
  },
  "schemaVersion": "2.0.0",
  "updatedAt": "2018-08-27T15:38:42.523Z"
}