{
  "contractName": "MerkleProofWrapper",
  "abi": [
    {
      "constant": true,
      "inputs": [
        {
          "name": "_proof",
          "type": "bytes32[]"
        },
        {
          "name": "_root",
          "type": "bytes32"
        },
        {
          "name": "_leaf",
          "type": "bytes32"
        }
      ],
      "name": "verifyProof",
      "outputs": [
        {
          "name": "",
          "type": "bool"
        }
      ],
      "payable": false,
      "stateMutability": "pure",
      "type": "function"
    }
  ],
  "bytecode": "0x608060405234801561001057600080fd5b506102c5806100206000396000f300608060405260043610610041576000357c0100000000000000000000000000000000000000000000000000000000900463ffffffff1680634bc935d714610046575b600080fd5b34801561005257600080fd5b506100c660048036038101908080359060200190820180359060200190808060200260200160405190810160405280939291908181526020018383602002808284378201915050505050509192919290803560001916906020019092919080356000191690602001909291905050506100e0565b604051808215151515815260200191505060405180910390f35b60006100ed8484846100f6565b90509392505050565b600080600080849250600091505b865182101561028257868281518110151561011b57fe5b9060200190602002015190508060001916836000191610156101d85782816040516020018083600019166000191681526020018260001916600019168152602001925050506040516020818303038152906040526040518082805190602001908083835b6020831015156101a4578051825260208201915060208101905060208303925061017f565b6001836020036101000a03801982511681845116808217855250505050505090500191505060405180910390209250610275565b80836040516020018083600019166000191681526020018260001916600019168152602001925050506040516020818303038152906040526040518082805190602001908083835b6020831015156102455780518252602082019150602081019050602083039250610220565b6001836020036101000a038019825116818451168082178552505050505050905001915050604051809103902092505b8180600101925050610104565b8560001916836000191614935050505093925050505600a165627a7a723058203441bad8d21ef747a7d8e562b4b8f9e1dd9b134035db5c97882148cd5b17010f0029",
  "source": "pragma solidity ^0.4.24;\n\nimport { MerkleProof } from \"../MerkleProof.sol\";\n\n\ncontract MerkleProofWrapper {\n\n  function verifyProof(\n    bytes32[] _proof,\n    bytes32 _root,\n    bytes32 _leaf\n  )\n    public\n    pure\n    returns (bool)\n  {\n    return MerkleProof.verifyProof(_proof, _root, _leaf);\n  }\n}\n",
  "sourcePath": "/home/spalladino/Projects/openzeppelin-zos/contracts/mocks/MerkleProofWrapper.sol",
  "compiler": {
    "name": "solc",
    "version": "0.4.24+commit.e67f0147.Emscripten.clang"
  },
  "schemaVersion": "2.0.0",
  "updatedAt": "2018-08-27T15:38:42.523Z"
}