{
  "contractName": "SafeMathMock",
  "abi": [
    {
      "constant": true,
      "inputs": [
        {
          "name": "a",
          "type": "uint256"
        },
        {
          "name": "b",
          "type": "uint256"
        }
      ],
      "name": "mul",
      "outputs": [
        {
          "name": "",
          "type": "uint256"
        }
      ],
      "payable": false,
      "stateMutability": "pure",
      "type": "function"
    },
    {
      "constant": true,
      "inputs": [
        {
          "name": "a",
          "type": "uint256"
        },
        {
          "name": "b",
          "type": "uint256"
        }
      ],
      "name": "div",
      "outputs": [
        {
          "name": "",
          "type": "uint256"
        }
      ],
      "payable": false,
      "stateMutability": "pure",
      "type": "function"
    },
    {
      "constant": true,
      "inputs": [
        {
          "name": "a",
          "type": "uint256"
        },
        {
          "name": "b",
          "type": "uint256"
        }
      ],
      "name": "sub",
      "outputs": [
        {
          "name": "",
          "type": "uint256"
        }
      ],
      "payable": false,
      "stateMutability": "pure",
      "type": "function"
    },
    {
      "constant": true,
      "inputs": [
        {
          "name": "a",
          "type": "uint256"
        },
        {
          "name": "b",
          "type": "uint256"
        }
      ],
      "name": "add",
      "outputs": [
        {
          "name": "",
          "type": "uint256"
        }
      ],
      "payable": false,
      "stateMutability": "pure",
      "type": "function"
    }
  ],
  "bytecode": "0x608060405234801561001057600080fd5b50610292806100206000396000f300608060405260043610610062576000357c0100000000000000000000000000000000000000000000000000000000900463ffffffff168063771602f714610067578063a391c15b146100b2578063b67d77c5146100fd578063c8a4ac9c14610148575b600080fd5b34801561007357600080fd5b5061009c6004803603810190808035906020019092919080359060200190929190505050610193565b6040518082815260200191505060405180910390f35b3480156100be57600080fd5b506100e760048036038101908080359060200190929190803590602001909291905050506101a7565b6040518082815260200191505060405180910390f35b34801561010957600080fd5b5061013260048036038101908080359060200190929190803590602001909291905050506101bb565b6040518082815260200191505060405180910390f35b34801561015457600080fd5b5061017d60048036038101908080359060200190929190803590602001909291905050506101cf565b6040518082815260200191505060405180910390f35b600061019f83836101e3565b905092915050565b60006101b383836101ff565b905092915050565b60006101c78383610215565b905092915050565b60006101db838361022e565b905092915050565b600081830190508281101515156101f657fe5b80905092915050565b6000818381151561020c57fe5b04905092915050565b600082821115151561022357fe5b818303905092915050565b6000808314156102415760009050610260565b818302905081838281151561025257fe5b0414151561025c57fe5b8090505b929150505600a165627a7a72305820b3e3397426a1e20591ccf2d3984a169f4442fb677056fe4bfd2984471f57c5bd0029",
  "source": "pragma solidity ^0.4.24;\n\n\nimport \"../math/SafeMath.sol\";\n\n\ncontract SafeMathMock {\n\n  function mul(uint256 a, uint256 b) public pure returns (uint256) {\n    return SafeMath.mul(a, b);\n  }\n\n  function div(uint256 a, uint256 b) public pure returns (uint256) {\n    return SafeMath.div(a, b);\n  }\n\n  function sub(uint256 a, uint256 b) public pure returns (uint256) {\n    return SafeMath.sub(a, b);\n  }\n\n  function add(uint256 a, uint256 b) public pure returns (uint256) {\n    return SafeMath.add(a, b);\n  }\n}\n",
  "sourcePath": "/home/spalladino/Projects/openzeppelin-zos/contracts/mocks/SafeMathMock.sol",
  "compiler": {
    "name": "solc",
    "version": "0.4.24+commit.e67f0147.Emscripten.clang"
  },
  "schemaVersion": "2.0.0",
  "updatedAt": "2018-08-27T15:38:42.527Z"
}