{
  "contractName": "SignatureBouncer",
  "abi": [
    {
      "constant": true,
      "inputs": [
        {
          "name": "_operator",
          "type": "address"
        },
        {
          "name": "_role",
          "type": "string"
        }
      ],
      "name": "checkRole",
      "outputs": [],
      "payable": false,
      "stateMutability": "view",
      "type": "function"
    },
    {
      "constant": true,
      "inputs": [
        {
          "name": "_operator",
          "type": "address"
        },
        {
          "name": "_role",
          "type": "string"
        }
      ],
      "name": "hasRole",
      "outputs": [
        {
          "name": "",
          "type": "bool"
        }
      ],
      "payable": false,
      "stateMutability": "view",
      "type": "function"
    },
    {
      "constant": false,
      "inputs": [],
      "name": "renounceOwnership",
      "outputs": [],
      "payable": false,
      "stateMutability": "nonpayable",
      "type": "function"
    },
    {
      "constant": true,
      "inputs": [],
      "name": "owner",
      "outputs": [
        {
          "name": "",
          "type": "address"
        }
      ],
      "payable": false,
      "stateMutability": "view",
      "type": "function"
    },
    {
      "constant": true,
      "inputs": [
        {
          "name": "contractName",
          "type": "string"
        },
        {
          "name": "migrationId",
          "type": "string"
        }
      ],
      "name": "isMigrated",
      "outputs": [
        {
          "name": "",
          "type": "bool"
        }
      ],
      "payable": false,
      "stateMutability": "view",
      "type": "function"
    },
    {
      "constant": true,
      "inputs": [],
      "name": "ROLE_BOUNCER",
      "outputs": [
        {
          "name": "",
          "type": "string"
        }
      ],
      "payable": false,
      "stateMutability": "view",
      "type": "function"
    },
    {
      "constant": false,
      "inputs": [
        {
          "name": "_newOwner",
          "type": "address"
        }
      ],
      "name": "transferOwnership",
      "outputs": [],
      "payable": false,
      "stateMutability": "nonpayable",
      "type": "function"
    },
    {
      "anonymous": false,
      "inputs": [
        {
          "indexed": true,
          "name": "operator",
          "type": "address"
        },
        {
          "indexed": false,
          "name": "role",
          "type": "string"
        }
      ],
      "name": "RoleAdded",
      "type": "event"
    },
    {
      "anonymous": false,
      "inputs": [
        {
          "indexed": true,
          "name": "operator",
          "type": "address"
        },
        {
          "indexed": false,
          "name": "role",
          "type": "string"
        }
      ],
      "name": "RoleRemoved",
      "type": "event"
    },
    {
      "anonymous": false,
      "inputs": [
        {
          "indexed": true,
          "name": "previousOwner",
          "type": "address"
        }
      ],
      "name": "OwnershipRenounced",
      "type": "event"
    },
    {
      "anonymous": false,
      "inputs": [
        {
          "indexed": true,
          "name": "previousOwner",
          "type": "address"
        },
        {
          "indexed": true,
          "name": "newOwner",
          "type": "address"
        }
      ],
      "name": "OwnershipTransferred",
      "type": "event"
    },
    {
      "anonymous": false,
      "inputs": [
        {
          "indexed": false,
          "name": "contractName",
          "type": "string"
        },
        {
          "indexed": false,
          "name": "migrationId",
          "type": "string"
        }
      ],
      "name": "Migrated",
      "type": "event"
    },
    {
      "constant": false,
      "inputs": [
        {
          "name": "_sender",
          "type": "address"
        }
      ],
      "name": "initialize",
      "outputs": [],
      "payable": false,
      "stateMutability": "nonpayable",
      "type": "function"
    },
    {
      "constant": false,
      "inputs": [
        {
          "name": "_bouncer",
          "type": "address"
        }
      ],
      "name": "addBouncer",
      "outputs": [],
      "payable": false,
      "stateMutability": "nonpayable",
      "type": "function"
    },
    {
      "constant": false,
      "inputs": [
        {
          "name": "_bouncer",
          "type": "address"
        }
      ],
      "name": "removeBouncer",
      "outputs": [],
      "payable": false,
      "stateMutability": "nonpayable",
      "type": "function"
    }
  ],
  "bytecode": "0x608060405234801561001057600080fd5b50611419806100206000396000f3006080604052600436106100a4576000357c0100000000000000000000000000000000000000000000000000000000900463ffffffff1680630988ca8c146100a95780631479290e14610132578063217fe6c614610175578063715018a614610216578063888764c81461022d5780638da5cb5b14610270578063c0bac1a8146102c7578063c4d66de81461038e578063d466ab6b146103d1578063f2fde38b14610461575b600080fd5b3480156100b557600080fd5b50610130600480360381019080803573ffffffffffffffffffffffffffffffffffffffff169060200190929190803590602001908201803590602001908080601f01602080910402602001604051908101604052809392919081815260200183838082843782019150505050505091929192905050506104a4565b005b34801561013e57600080fd5b50610173600480360381019080803573ffffffffffffffffffffffffffffffffffffffff169060200190929190505050610525565b005b34801561018157600080fd5b506101fc600480360381019080803573ffffffffffffffffffffffffffffffffffffffff169060200190929190803590602001908201803590602001908080601f01602080910402602001604051908101604052809392919081815260200183838082843782019150505050505091929192905050506105ff565b604051808215151515815260200191505060405180910390f35b34801561022257600080fd5b5061022b610686565b005b34801561023957600080fd5b5061026e600480360381019080803573ffffffffffffffffffffffffffffffffffffffff16906020019092919050505061078b565b005b34801561027c57600080fd5b50610285610865565b604051808273ffffffffffffffffffffffffffffffffffffffff1673ffffffffffffffffffffffffffffffffffffffff16815260200191505060405180910390f35b3480156102d357600080fd5b50610374600480360381019080803590602001908201803590602001908080601f0160208091040260200160405190810160405280939291908181526020018383808284378201915050505050509192919290803590602001908201803590602001908080601f016020809104026020016040519081016040528093929190818152602001838380828437820191505050505050919291929050505061088b565b604051808215151515815260200191505060405180910390f35b34801561039a57600080fd5b506103cf600480360381019080803573ffffffffffffffffffffffffffffffffffffffff169060200190929190505050610976565b005b3480156103dd57600080fd5b506103e6610bfc565b6040518080602001828103825283818151815260200191508051906020019080838360005b8381101561042657808201518184015260208101905061040b565b50505050905090810190601f1680156104535780820380516001836020036101000a031916815260200191505b509250505060405180910390f35b34801561046d57600080fd5b506104a2600480360381019080803573ffffffffffffffffffffffffffffffffffffffff169060200190929190505050610c35565b005b610521826002836040518082805190602001908083835b6020831015156104e057805182526020820191506020810190506020830392506104bb565b6001836020036101000a0380198251168184511680821785525050505050509050019150509081526020016040518091039020610c9d90919063ffffffff16565b5050565b600160009054906101000a900473ffffffffffffffffffffffffffffffffffffffff1673ffffffffffffffffffffffffffffffffffffffff163373ffffffffffffffffffffffffffffffffffffffff1614151561058157600080fd5b600073ffffffffffffffffffffffffffffffffffffffff168173ffffffffffffffffffffffffffffffffffffffff16141515156105bd57600080fd5b6105fc816040805190810160405280600781526020017f626f756e63657200000000000000000000000000000000000000000000000000815250610cb6565b50565b600061067e836002846040518082805190602001908083835b60208310151561063d5780518252602082019150602081019050602083039250610618565b6001836020036101000a0380198251168184511680821785525050505050509050019150509081526020016040518091039020610dea90919063ffffffff16565b905092915050565b600160009054906101000a900473ffffffffffffffffffffffffffffffffffffffff1673ffffffffffffffffffffffffffffffffffffffff163373ffffffffffffffffffffffffffffffffffffffff161415156106e257600080fd5b600160009054906101000a900473ffffffffffffffffffffffffffffffffffffffff1673ffffffffffffffffffffffffffffffffffffffff167ff8df31144d9c2f0f6b59d69b8b98abd5459d07f2742c4df920b25aae33c6482060405160405180910390a26000600160006101000a81548173ffffffffffffffffffffffffffffffffffffffff021916908373ffffffffffffffffffffffffffffffffffffffff160217905550565b600160009054906101000a900473ffffffffffffffffffffffffffffffffffffffff1673ffffffffffffffffffffffffffffffffffffffff163373ffffffffffffffffffffffffffffffffffffffff161415156107e757600080fd5b600073ffffffffffffffffffffffffffffffffffffffff168173ffffffffffffffffffffffffffffffffffffffff161415151561082357600080fd5b610862816040805190810160405280600781526020017f626f756e63657200000000000000000000000000000000000000000000000000815250610e43565b50565b600160009054906101000a900473ffffffffffffffffffffffffffffffffffffffff1681565b600080836040518082805190602001908083835b6020831015156108c4578051825260208201915060208101905060208303925061089f565b6001836020036101000a0380198251168184511680821785525050505050509050019150509081526020016040518091039020826040518082805190602001908083835b60208310151561092d5780518252602082019150602081019050602083039250610908565b6001836020036101000a038019825116818451168082178552505050505050905001915050908152602001604051809103902060009054906101000a900460ff16905092915050565b6040805190810160405280601081526020017f5369676e6174757265426f756e636572000000000000000000000000000000008152506040805190810160405280600581526020017f312e392e300000000000000000000000000000000000000000000000000000008152506109ec828261088b565b1515156109f857600080fd5b610a0183610f77565b7fdd117a11c22118c9dee4b5a67ce578bc44529dce21ee0ccc439588fbb9fb4ea38282604051808060200180602001838103835285818151815260200191508051906020019080838360005b83811015610a68578082015181840152602081019050610a4d565b50505050905090810190601f168015610a955780820380516001836020036101000a031916815260200191505b50838103825284818151815260200191508051906020019080838360005b83811015610ace578082015181840152602081019050610ab3565b50505050905090810190601f168015610afb5780820380516001836020036101000a031916815260200191505b5094505050505060405180910390a160016000836040518082805190602001908083835b602083101515610b445780518252602082019150602081019050602083039250610b1f565b6001836020036101000a0380198251168184511680821785525050505050509050019150509081526020016040518091039020826040518082805190602001908083835b602083101515610bad5780518252602082019150602081019050602083039250610b88565b6001836020036101000a038019825116818451168082178552505050505050905001915050908152602001604051809103902060006101000a81548160ff021916908315150217905550505050565b6040805190810160405280600781526020017f626f756e6365720000000000000000000000000000000000000000000000000081525081565b600160009054906101000a900473ffffffffffffffffffffffffffffffffffffffff1673ffffffffffffffffffffffffffffffffffffffff163373ffffffffffffffffffffffffffffffffffffffff16141515610c9157600080fd5b610c9a81611235565b50565b610ca78282610dea565b1515610cb257600080fd5b5050565b610d33826002836040518082805190602001908083835b602083101515610cf25780518252602082019150602081019050602083039250610ccd565b6001836020036101000a038019825116818451168082178552505050505050905001915050908152602001604051809103902061133190919063ffffffff16565b8173ffffffffffffffffffffffffffffffffffffffff167fd211483f91fc6eff862467f8de606587a30c8fc9981056f051b897a418df803a826040518080602001828103825283818151815260200191508051906020019080838360005b83811015610dac578082015181840152602081019050610d91565b50505050905090810190601f168015610dd95780820380516001836020036101000a031916815260200191505b509250505060405180910390a25050565b60008260000160008373ffffffffffffffffffffffffffffffffffffffff1673ffffffffffffffffffffffffffffffffffffffff16815260200190815260200160002060009054906101000a900460ff16905092915050565b610ec0826002836040518082805190602001908083835b602083101515610e7f5780518252602082019150602081019050602083039250610e5a565b6001836020036101000a038019825116818451168082178552505050505050905001915050908152602001604051809103902061138f90919063ffffffff16565b8173ffffffffffffffffffffffffffffffffffffffff167fbfec83d64eaa953f2708271a023ab9ee82057f8f3578d548c1a4ba0b5b700489826040518080602001828103825283818151815260200191508051906020019080838360005b83811015610f39578082015181840152602081019050610f1e565b50505050905090810190601f168015610f665780820380516001836020036101000a031916815260200191505b509250505060405180910390a25050565b6040805190810160405280600781526020017f4f776e61626c65000000000000000000000000000000000000000000000000008152506040805190810160405280600581526020017f312e392e30000000000000000000000000000000000000000000000000000000815250610fed828261088b565b151515610ff957600080fd5b82600160006101000a81548173ffffffffffffffffffffffffffffffffffffffff021916908373ffffffffffffffffffffffffffffffffffffffff1602179055507fdd117a11c22118c9dee4b5a67ce578bc44529dce21ee0ccc439588fbb9fb4ea38282604051808060200180602001838103835285818151815260200191508051906020019080838360005b838110156110a1578082015181840152602081019050611086565b50505050905090810190601f1680156110ce5780820380516001836020036101000a031916815260200191505b50838103825284818151815260200191508051906020019080838360005b838110156111075780820151818401526020810190506110ec565b50505050905090810190601f1680156111345780820380516001836020036101000a031916815260200191505b5094505050505060405180910390a160016000836040518082805190602001908083835b60208310151561117d5780518252602082019150602081019050602083039250611158565b6001836020036101000a0380198251168184511680821785525050505050509050019150509081526020016040518091039020826040518082805190602001908083835b6020831015156111e657805182526020820191506020810190506020830392506111c1565b6001836020036101000a038019825116818451168082178552505050505050905001915050908152602001604051809103902060006101000a81548160ff021916908315150217905550505050565b600073ffffffffffffffffffffffffffffffffffffffff168173ffffffffffffffffffffffffffffffffffffffff161415151561127157600080fd5b8073ffffffffffffffffffffffffffffffffffffffff16600160009054906101000a900473ffffffffffffffffffffffffffffffffffffffff1673ffffffffffffffffffffffffffffffffffffffff167f8be0079c531659141344cd1fd0a4f28419497f9722a3daafe3b4186f6b6457e060405160405180910390a380600160006101000a81548173ffffffffffffffffffffffffffffffffffffffff021916908373ffffffffffffffffffffffffffffffffffffffff16021790555050565b60008260000160008373ffffffffffffffffffffffffffffffffffffffff1673ffffffffffffffffffffffffffffffffffffffff16815260200190815260200160002060006101000a81548160ff0219169083151502179055505050565b60018260000160008373ffffffffffffffffffffffffffffffffffffffff1673ffffffffffffffffffffffffffffffffffffffff16815260200190815260200160002060006101000a81548160ff02191690831515021790555050505600a165627a7a72305820c889c30bfc5bba3385e38c5b24ab6e80f9dbcfabfa02a1c5feefdcf7f6b354cf0029",
  "source": "pragma solidity ^0.4.24;\n\nimport \"../ownership/Ownable.sol\";\nimport \"../ownership/rbac/RBAC.sol\";\nimport \"../ECRecovery.sol\";\n\n\n/**\n * @title SignatureBouncer\n * @author PhABC, Shrugs and aflesher\n * @dev Bouncer allows users to submit a signature as a permission to do an action.\n * If the signature is from one of the authorized bouncer addresses, the signature\n * is valid. The owner of the contract adds/removes bouncers.\n * Bouncer addresses can be individual servers signing grants or different\n * users within a decentralized club that have permission to invite other members.\n * This technique is useful for whitelists and airdrops; instead of putting all\n * valid addresses on-chain, simply sign a grant of the form\n * keccak256(abi.encodePacked(`:contractAddress` + `:granteeAddress`)) using a valid bouncer address.\n * Then restrict access to your crowdsale/whitelist/airdrop using the\n * `onlyValidSignature` modifier (or implement your own using isValidSignature).\n * In addition to `onlyValidSignature`, `onlyValidSignatureAndMethod` and\n * `onlyValidSignatureAndData` can be used to restrict access to only a given method\n * or a given method with given parameters respectively.\n * See the tests Bouncer.test.js for specific usage examples.\n * @notice A method that uses the `onlyValidSignatureAndData` modifier must make the _sig\n * parameter the \"last\" parameter. You cannot sign a message that has its own\n * signature in it so the last 128 bytes of msg.data (which represents the\n * length of the _sig data and the _sig data itself) is ignored when validating.\n * Also non fixed sized parameters make constructing the data in the signature\n * much more complex. See https://ethereum.stackexchange.com/a/50616 for more details.\n */\ncontract SignatureBouncer is Migratable, Ownable, RBAC {\n  using ECRecovery for bytes32;\n\n  string public constant ROLE_BOUNCER = \"bouncer\";\n  uint constant METHOD_ID_SIZE = 4;\n  // (signature length size) 32 bytes + (signature size 65 bytes padded) 96 bytes\n  uint constant SIGNATURE_SIZE = 128;\n\n  function initialize(address _sender)\n    isInitializer(\"SignatureBouncer\", \"1.9.0\")\n    public\n  {\n    Ownable.initialize(_sender);\n  }\n\n  /**\n   * @dev requires that a valid signature of a bouncer was provided\n   */\n  modifier onlyValidSignature(bytes _sig)\n  {\n    require(isValidSignature(msg.sender, _sig));\n    _;\n  }\n\n  /**\n   * @dev requires that a valid signature with a specifed method of a bouncer was provided\n   */\n  modifier onlyValidSignatureAndMethod(bytes _sig)\n  {\n    require(isValidSignatureAndMethod(msg.sender, _sig));\n    _;\n  }\n\n  /**\n   * @dev requires that a valid signature with a specifed method and params of a bouncer was provided\n   */\n  modifier onlyValidSignatureAndData(bytes _sig)\n  {\n    require(isValidSignatureAndData(msg.sender, _sig));\n    _;\n  }\n\n  /**\n   * @dev allows the owner to add additional bouncer addresses\n   */\n  function addBouncer(address _bouncer)\n    onlyOwner\n    public\n  {\n    require(_bouncer != address(0));\n    addRole(_bouncer, ROLE_BOUNCER);\n  }\n\n  /**\n   * @dev allows the owner to remove bouncer addresses\n   */\n  function removeBouncer(address _bouncer)\n    onlyOwner\n    public\n  {\n    require(_bouncer != address(0));\n    removeRole(_bouncer, ROLE_BOUNCER);\n  }\n\n  /**\n   * @dev is the signature of `this + sender` from a bouncer?\n   * @return bool\n   */\n  function isValidSignature(address _address, bytes _sig)\n    internal\n    view\n    returns (bool)\n  {\n    return isValidDataHash(\n      keccak256(abi.encodePacked(address(this), _address)),\n      _sig\n    );\n  }\n\n  /**\n   * @dev is the signature of `this + sender + methodId` from a bouncer?\n   * @return bool\n   */\n  function isValidSignatureAndMethod(address _address, bytes _sig)\n    internal\n    view\n    returns (bool)\n  {\n    bytes memory data = new bytes(METHOD_ID_SIZE);\n    for (uint i = 0; i < data.length; i++) {\n      data[i] = msg.data[i];\n    }\n    return isValidDataHash(\n      keccak256(abi.encodePacked(address(this), _address, data)),\n      _sig\n    );\n  }\n\n  /**\n    * @dev is the signature of `this + sender + methodId + params(s)` from a bouncer?\n    * @notice the _sig parameter of the method being validated must be the \"last\" parameter\n    * @return bool\n    */\n  function isValidSignatureAndData(address _address, bytes _sig)\n    internal\n    view\n    returns (bool)\n  {\n    require(msg.data.length > SIGNATURE_SIZE);\n    bytes memory data = new bytes(msg.data.length - SIGNATURE_SIZE);\n    for (uint i = 0; i < data.length; i++) {\n      data[i] = msg.data[i];\n    }\n    return isValidDataHash(\n      keccak256(abi.encodePacked(address(this), _address, data)),\n      _sig\n    );\n  }\n\n  /**\n   * @dev internal function to convert a hash to an eth signed message\n   * and then recover the signature and check it against the bouncer role\n   * @return bool\n   */\n  function isValidDataHash(bytes32 hash, bytes _sig)\n    internal\n    view\n    returns (bool)\n  {\n    address signer = hash\n      .toEthSignedMessageHash()\n      .recover(_sig);\n    return hasRole(signer, ROLE_BOUNCER);\n  }\n}\n",
  "sourcePath": "/home/spalladino/Projects/openzeppelin-zos/contracts/access/SignatureBouncer.sol",
  "compiler": {
    "name": "solc",
    "version": "0.4.24+commit.e67f0147.Emscripten.clang"
  },
  "schemaVersion": "2.0.0",
  "updatedAt": "2018-08-27T15:38:42.518Z"
}