{
  "contractName": "SignatureBouncerMock",
  "abi": [
    {
      "constant": true,
      "inputs": [
        {
          "name": "_operator",
          "type": "address"
        },
        {
          "name": "_role",
          "type": "string"
        }
      ],
      "name": "checkRole",
      "outputs": [],
      "payable": false,
      "stateMutability": "view",
      "type": "function"
    },
    {
      "constant": false,
      "inputs": [
        {
          "name": "_bouncer",
          "type": "address"
        }
      ],
      "name": "removeBouncer",
      "outputs": [],
      "payable": false,
      "stateMutability": "nonpayable",
      "type": "function"
    },
    {
      "constant": true,
      "inputs": [
        {
          "name": "_operator",
          "type": "address"
        },
        {
          "name": "_role",
          "type": "string"
        }
      ],
      "name": "hasRole",
      "outputs": [
        {
          "name": "",
          "type": "bool"
        }
      ],
      "payable": false,
      "stateMutability": "view",
      "type": "function"
    },
    {
      "constant": false,
      "inputs": [],
      "name": "renounceOwnership",
      "outputs": [],
      "payable": false,
      "stateMutability": "nonpayable",
      "type": "function"
    },
    {
      "constant": false,
      "inputs": [
        {
          "name": "_bouncer",
          "type": "address"
        }
      ],
      "name": "addBouncer",
      "outputs": [],
      "payable": false,
      "stateMutability": "nonpayable",
      "type": "function"
    },
    {
      "constant": true,
      "inputs": [],
      "name": "owner",
      "outputs": [
        {
          "name": "",
          "type": "address"
        }
      ],
      "payable": false,
      "stateMutability": "view",
      "type": "function"
    },
    {
      "constant": true,
      "inputs": [
        {
          "name": "contractName",
          "type": "string"
        },
        {
          "name": "migrationId",
          "type": "string"
        }
      ],
      "name": "isMigrated",
      "outputs": [
        {
          "name": "",
          "type": "bool"
        }
      ],
      "payable": false,
      "stateMutability": "view",
      "type": "function"
    },
    {
      "constant": true,
      "inputs": [],
      "name": "ROLE_BOUNCER",
      "outputs": [
        {
          "name": "",
          "type": "string"
        }
      ],
      "payable": false,
      "stateMutability": "view",
      "type": "function"
    },
    {
      "constant": false,
      "inputs": [
        {
          "name": "_newOwner",
          "type": "address"
        }
      ],
      "name": "transferOwnership",
      "outputs": [],
      "payable": false,
      "stateMutability": "nonpayable",
      "type": "function"
    },
    {
      "anonymous": false,
      "inputs": [
        {
          "indexed": true,
          "name": "operator",
          "type": "address"
        },
        {
          "indexed": false,
          "name": "role",
          "type": "string"
        }
      ],
      "name": "RoleAdded",
      "type": "event"
    },
    {
      "anonymous": false,
      "inputs": [
        {
          "indexed": true,
          "name": "operator",
          "type": "address"
        },
        {
          "indexed": false,
          "name": "role",
          "type": "string"
        }
      ],
      "name": "RoleRemoved",
      "type": "event"
    },
    {
      "anonymous": false,
      "inputs": [
        {
          "indexed": true,
          "name": "previousOwner",
          "type": "address"
        }
      ],
      "name": "OwnershipRenounced",
      "type": "event"
    },
    {
      "anonymous": false,
      "inputs": [
        {
          "indexed": true,
          "name": "previousOwner",
          "type": "address"
        },
        {
          "indexed": true,
          "name": "newOwner",
          "type": "address"
        }
      ],
      "name": "OwnershipTransferred",
      "type": "event"
    },
    {
      "anonymous": false,
      "inputs": [
        {
          "indexed": false,
          "name": "contractName",
          "type": "string"
        },
        {
          "indexed": false,
          "name": "migrationId",
          "type": "string"
        }
      ],
      "name": "Migrated",
      "type": "event"
    },
    {
      "constant": false,
      "inputs": [
        {
          "name": "_sender",
          "type": "address"
        }
      ],
      "name": "initialize",
      "outputs": [],
      "payable": false,
      "stateMutability": "nonpayable",
      "type": "function"
    },
    {
      "constant": true,
      "inputs": [
        {
          "name": "_address",
          "type": "address"
        },
        {
          "name": "_sig",
          "type": "bytes"
        }
      ],
      "name": "checkValidSignature",
      "outputs": [
        {
          "name": "",
          "type": "bool"
        }
      ],
      "payable": false,
      "stateMutability": "view",
      "type": "function"
    },
    {
      "constant": true,
      "inputs": [
        {
          "name": "_sig",
          "type": "bytes"
        }
      ],
      "name": "onlyWithValidSignature",
      "outputs": [],
      "payable": false,
      "stateMutability": "view",
      "type": "function"
    },
    {
      "constant": true,
      "inputs": [
        {
          "name": "_address",
          "type": "address"
        },
        {
          "name": "_sig",
          "type": "bytes"
        }
      ],
      "name": "checkValidSignatureAndMethod",
      "outputs": [
        {
          "name": "",
          "type": "bool"
        }
      ],
      "payable": false,
      "stateMutability": "view",
      "type": "function"
    },
    {
      "constant": true,
      "inputs": [
        {
          "name": "_sig",
          "type": "bytes"
        }
      ],
      "name": "onlyWithValidSignatureAndMethod",
      "outputs": [],
      "payable": false,
      "stateMutability": "view",
      "type": "function"
    },
    {
      "constant": true,
      "inputs": [
        {
          "name": "_address",
          "type": "address"
        },
        {
          "name": "_bytes",
          "type": "bytes"
        },
        {
          "name": "_val",
          "type": "uint256"
        },
        {
          "name": "_sig",
          "type": "bytes"
        }
      ],
      "name": "checkValidSignatureAndData",
      "outputs": [
        {
          "name": "",
          "type": "bool"
        }
      ],
      "payable": false,
      "stateMutability": "view",
      "type": "function"
    },
    {
      "constant": true,
      "inputs": [
        {
          "name": "_val",
          "type": "uint256"
        },
        {
          "name": "_sig",
          "type": "bytes"
        }
      ],
      "name": "onlyWithValidSignatureAndData",
      "outputs": [],
      "payable": false,
      "stateMutability": "view",
      "type": "function"
    }
  ],
  "bytecode": "0x608060405234801561001057600080fd5b50612325806100206000396000f3006080604052600436106100e6576000357c0100000000000000000000000000000000000000000000000000000000900463ffffffff1680630988ca8c146100eb5780631479290e14610174578063217fe6c6146101b75780636123f7ba1461025857806368b51ac7146102c15780636b802108146103625780636d5b942714610403578063715018a61461046c578063888764c8146104835780638da5cb5b146104c6578063997027e81461051d578063b20bdb681461060e578063c0bac1a814610681578063c4d66de814610748578063d466ab6b1461078b578063f2fde38b1461081b575b600080fd5b3480156100f757600080fd5b50610172600480360381019080803573ffffffffffffffffffffffffffffffffffffffff169060200190929190803590602001908201803590602001908080601f016020809104026020016040519081016040528093929190818152602001838380828437820191505050505050919291929050505061085e565b005b34801561018057600080fd5b506101b5600480360381019080803573ffffffffffffffffffffffffffffffffffffffff1690602001909291905050506108df565b005b3480156101c357600080fd5b5061023e600480360381019080803573ffffffffffffffffffffffffffffffffffffffff169060200190929190803590602001908201803590602001908080601f01602080910402602001604051908101604052809392919081815260200183838082843782019150505050505091929192905050506109b9565b604051808215151515815260200191505060405180910390f35b34801561026457600080fd5b506102bf600480360381019080803590602001908201803590602001908080601f0160208091040260200160405190810160405280939291908181526020018383808284378201915050505050509192919290505050610a40565b005b3480156102cd57600080fd5b50610348600480360381019080803573ffffffffffffffffffffffffffffffffffffffff169060200190929190803590602001908201803590602001908080601f0160208091040260200160405190810160405280939291908181526020018383808284378201915050505050509192919290505050610a5a565b604051808215151515815260200191505060405180910390f35b34801561036e57600080fd5b506103e9600480360381019080803573ffffffffffffffffffffffffffffffffffffffff169060200190929190803590602001908201803590602001908080601f0160208091040260200160405190810160405280939291908181526020018383808284378201915050505050509192919290505050610a6e565b604051808215151515815260200191505060405180910390f35b34801561040f57600080fd5b5061046a600480360381019080803590602001908201803590602001908080601f0160208091040260200160405190810160405280939291908181526020018383808284378201915050505050509192919290505050610a82565b005b34801561047857600080fd5b50610481610a9c565b005b34801561048f57600080fd5b506104c4600480360381019080803573ffffffffffffffffffffffffffffffffffffffff169060200190929190505050610ba1565b005b3480156104d257600080fd5b506104db610c7b565b604051808273ffffffffffffffffffffffffffffffffffffffff1673ffffffffffffffffffffffffffffffffffffffff16815260200191505060405180910390f35b34801561052957600080fd5b506105f4600480360381019080803573ffffffffffffffffffffffffffffffffffffffff169060200190929190803590602001908201803590602001908080601f016020809104026020016040519081016040528093929190818152602001838380828437820191505050505050919291929080359060200190929190803590602001908201803590602001908080601f0160208091040260200160405190810160405280939291908181526020018383808284378201915050505050509192919290505050610ca1565b604051808215151515815260200191505060405180910390f35b34801561061a57600080fd5b5061067f60048036038101908080359060200190929190803590602001908201803590602001908080601f0160208091040260200160405190810160405280939291908181526020018383808284378201915050505050509192919290505050610cb7565b005b34801561068d57600080fd5b5061072e600480360381019080803590602001908201803590602001908080601f0160208091040260200160405190810160405280939291908181526020018383808284378201915050505050509192919290803590602001908201803590602001908080601f0160208091040260200160405190810160405280939291908181526020018383808284378201915050505050509192919290505050610cd2565b604051808215151515815260200191505060405180910390f35b34801561075457600080fd5b50610789600480360381019080803573ffffffffffffffffffffffffffffffffffffffff169060200190929190505050610dbd565b005b34801561079757600080fd5b506107a0611043565b6040518080602001828103825283818151815260200191508051906020019080838360005b838110156107e05780820151818401526020810190506107c5565b50505050905090810190601f16801561080d5780820380516001836020036101000a031916815260200191505b509250505060405180910390f35b34801561082757600080fd5b5061085c600480360381019080803573ffffffffffffffffffffffffffffffffffffffff16906020019092919050505061107c565b005b6108db826002836040518082805190602001908083835b60208310151561089a5780518252602082019150602081019050602083039250610875565b6001836020036101000a03801982511681845116808217855250505050505090500191505090815260200160405180910390206110e490919063ffffffff16565b5050565b600160009054906101000a900473ffffffffffffffffffffffffffffffffffffffff1673ffffffffffffffffffffffffffffffffffffffff163373ffffffffffffffffffffffffffffffffffffffff1614151561093b57600080fd5b600073ffffffffffffffffffffffffffffffffffffffff168173ffffffffffffffffffffffffffffffffffffffff161415151561097757600080fd5b6109b6816040805190810160405280600781526020017f626f756e636572000000000000000000000000000000000000000000000000008152506110fd565b50565b6000610a38836002846040518082805190602001908083835b6020831015156109f757805182526020820191506020810190506020830392506109d2565b6001836020036101000a038019825116818451168082178552505050505050905001915050908152602001604051809103902061123190919063ffffffff16565b905092915050565b80610a4b338261128a565b1515610a5657600080fd5b5050565b6000610a668383611502565b905092915050565b6000610a7a838361128a565b905092915050565b80610a8d3382611502565b1515610a9857600080fd5b5050565b600160009054906101000a900473ffffffffffffffffffffffffffffffffffffffff1673ffffffffffffffffffffffffffffffffffffffff163373ffffffffffffffffffffffffffffffffffffffff16141515610af857600080fd5b600160009054906101000a900473ffffffffffffffffffffffffffffffffffffffff1673ffffffffffffffffffffffffffffffffffffffff167ff8df31144d9c2f0f6b59d69b8b98abd5459d07f2742c4df920b25aae33c6482060405160405180910390a26000600160006101000a81548173ffffffffffffffffffffffffffffffffffffffff021916908373ffffffffffffffffffffffffffffffffffffffff160217905550565b600160009054906101000a900473ffffffffffffffffffffffffffffffffffffffff1673ffffffffffffffffffffffffffffffffffffffff163373ffffffffffffffffffffffffffffffffffffffff16141515610bfd57600080fd5b600073ffffffffffffffffffffffffffffffffffffffff168173ffffffffffffffffffffffffffffffffffffffff1614151515610c3957600080fd5b610c78816040805190810160405280600781526020017f626f756e63657200000000000000000000000000000000000000000000000000815250611615565b50565b600160009054906101000a900473ffffffffffffffffffffffffffffffffffffffff1681565b6000610cad8583611749565b9050949350505050565b80610cc23382611749565b1515610ccd57600080fd5b505050565b600080836040518082805190602001908083835b602083101515610d0b5780518252602082019150602081019050602083039250610ce6565b6001836020036101000a0380198251168184511680821785525050505050509050019150509081526020016040518091039020826040518082805190602001908083835b602083101515610d745780518252602082019150602081019050602083039250610d4f565b6001836020036101000a038019825116818451168082178552505050505050905001915050908152602001604051809103902060009054906101000a900460ff16905092915050565b6040805190810160405280601481526020017f5369676e6174757265426f756e6365724d6f636b0000000000000000000000008152506040805190810160405280600581526020017f312e392e30000000000000000000000000000000000000000000000000000000815250610e338282610cd2565b151515610e3f57600080fd5b610e48836119da565b7fdd117a11c22118c9dee4b5a67ce578bc44529dce21ee0ccc439588fbb9fb4ea38282604051808060200180602001838103835285818151815260200191508051906020019080838360005b83811015610eaf578082015181840152602081019050610e94565b50505050905090810190601f168015610edc5780820380516001836020036101000a031916815260200191505b50838103825284818151815260200191508051906020019080838360005b83811015610f15578082015181840152602081019050610efa565b50505050905090810190601f168015610f425780820380516001836020036101000a031916815260200191505b5094505050505060405180910390a160016000836040518082805190602001908083835b602083101515610f8b5780518252602082019150602081019050602083039250610f66565b6001836020036101000a0380198251168184511680821785525050505050509050019150509081526020016040518091039020826040518082805190602001908083835b602083101515610ff45780518252602082019150602081019050602083039250610fcf565b6001836020036101000a038019825116818451168082178552505050505050905001915050908152602001604051809103902060006101000a81548160ff021916908315150217905550505050565b6040805190810160405280600781526020017f626f756e6365720000000000000000000000000000000000000000000000000081525081565b600160009054906101000a900473ffffffffffffffffffffffffffffffffffffffff1673ffffffffffffffffffffffffffffffffffffffff163373ffffffffffffffffffffffffffffffffffffffff161415156110d857600080fd5b6110e181611c60565b50565b6110ee8282611231565b15156110f957600080fd5b5050565b61117a826002836040518082805190602001908083835b6020831015156111395780518252602082019150602081019050602083039250611114565b6001836020036101000a0380198251168184511680821785525050505050509050019150509081526020016040518091039020611d5c90919063ffffffff16565b8173ffffffffffffffffffffffffffffffffffffffff167fd211483f91fc6eff862467f8de606587a30c8fc9981056f051b897a418df803a826040518080602001828103825283818151815260200191508051906020019080838360005b838110156111f35780820151818401526020810190506111d8565b50505050905090810190601f1680156112205780820380516001836020036101000a031916815260200191505b509250505060405180910390a25050565b60008260000160008373ffffffffffffffffffffffffffffffffffffffff1673ffffffffffffffffffffffffffffffffffffffff16815260200190815260200160002060009054906101000a900460ff16905092915050565b60006060600060046040519080825280601f01601f1916602001820160405280156112c45781602001602082028038833980820191505090505b509150600090505b815181101561139a576000368281811015156112e457fe5b905001357f010000000000000000000000000000000000000000000000000000000000000090047f0100000000000000000000000000000000000000000000000000000000000000027effffffffffffffffffffffffffffffffffffffffffffffffffffffffffffff1916828281518110151561135d57fe5b9060200101907effffffffffffffffffffffffffffffffffffffffffffffffffffffffffffff1916908160001a90535080806001019150506112cc565b6114f8308684604051602001808473ffffffffffffffffffffffffffffffffffffffff1673ffffffffffffffffffffffffffffffffffffffff166c010000000000000000000000000281526014018373ffffffffffffffffffffffffffffffffffffffff1673ffffffffffffffffffffffffffffffffffffffff166c0100000000000000000000000002815260140182805190602001908083835b60208310151561145a5780518252602082019150602081019050602083039250611435565b6001836020036101000a03801982511681845116808217855250505050505090500193505050506040516020818303038152906040526040518082805190602001908083835b6020831015156114c557805182526020820191506020810190506020830392506114a0565b6001836020036101000a038019825116818451168082178552505050505050905001915050604051809103902085611dba565b9250505092915050565b600061160d3084604051602001808373ffffffffffffffffffffffffffffffffffffffff1673ffffffffffffffffffffffffffffffffffffffff166c010000000000000000000000000281526014018273ffffffffffffffffffffffffffffffffffffffff1673ffffffffffffffffffffffffffffffffffffffff166c01000000000000000000000000028152601401925050506040516020818303038152906040526040518082805190602001908083835b6020831015156115da57805182526020820191506020810190506020830392506115b5565b6001836020036101000a038019825116818451168082178552505050505050905001915050604051809103902083611dba565b905092915050565b611692826002836040518082805190602001908083835b602083101515611651578051825260208201915060208101905060208303925061162c565b6001836020036101000a0380198251168184511680821785525050505050509050019150509081526020016040518091039020611e2a90919063ffffffff16565b8173ffffffffffffffffffffffffffffffffffffffff167fbfec83d64eaa953f2708271a023ab9ee82057f8f3578d548c1a4ba0b5b700489826040518080602001828103825283818151815260200191508051906020019080838360005b8381101561170b5780820151818401526020810190506116f0565b50505050905090810190601f1680156117385780820380516001836020036101000a031916815260200191505b509250505060405180910390a25050565b6000606060006080600036905011151561176257600080fd5b60806000369050036040519080825280601f01601f19166020018201604052801561179c5781602001602082028038833980820191505090505b509150600090505b8151811015611872576000368281811015156117bc57fe5b905001357f010000000000000000000000000000000000000000000000000000000000000090047f0100000000000000000000000000000000000000000000000000000000000000027effffffffffffffffffffffffffffffffffffffffffffffffffffffffffffff1916828281518110151561183557fe5b9060200101907effffffffffffffffffffffffffffffffffffffffffffffffffffffffffffff1916908160001a90535080806001019150506117a4565b6119d0308684604051602001808473ffffffffffffffffffffffffffffffffffffffff1673ffffffffffffffffffffffffffffffffffffffff166c010000000000000000000000000281526014018373ffffffffffffffffffffffffffffffffffffffff1673ffffffffffffffffffffffffffffffffffffffff166c0100000000000000000000000002815260140182805190602001908083835b602083101515611932578051825260208201915060208101905060208303925061190d565b6001836020036101000a03801982511681845116808217855250505050505090500193505050506040516020818303038152906040526040518082805190602001908083835b60208310151561199d5780518252602082019150602081019050602083039250611978565b6001836020036101000a038019825116818451168082178552505050505050905001915050604051809103902085611dba565b9250505092915050565b6040805190810160405280601081526020017f5369676e6174757265426f756e636572000000000000000000000000000000008152506040805190810160405280600581526020017f312e392e30000000000000000000000000000000000000000000000000000000815250611a508282610cd2565b151515611a5c57600080fd5b611a6583611e88565b7fdd117a11c22118c9dee4b5a67ce578bc44529dce21ee0ccc439588fbb9fb4ea38282604051808060200180602001838103835285818151815260200191508051906020019080838360005b83811015611acc578082015181840152602081019050611ab1565b50505050905090810190601f168015611af95780820380516001836020036101000a031916815260200191505b50838103825284818151815260200191508051906020019080838360005b83811015611b32578082015181840152602081019050611b17565b50505050905090810190601f168015611b5f5780820380516001836020036101000a031916815260200191505b5094505050505060405180910390a160016000836040518082805190602001908083835b602083101515611ba85780518252602082019150602081019050602083039250611b83565b6001836020036101000a0380198251168184511680821785525050505050509050019150509081526020016040518091039020826040518082805190602001908083835b602083101515611c115780518252602082019150602081019050602083039250611bec565b6001836020036101000a038019825116818451168082178552505050505050905001915050908152602001604051809103902060006101000a81548160ff021916908315150217905550505050565b600073ffffffffffffffffffffffffffffffffffffffff168173ffffffffffffffffffffffffffffffffffffffff1614151515611c9c57600080fd5b8073ffffffffffffffffffffffffffffffffffffffff16600160009054906101000a900473ffffffffffffffffffffffffffffffffffffffff1673ffffffffffffffffffffffffffffffffffffffff167f8be0079c531659141344cd1fd0a4f28419497f9722a3daafe3b4186f6b6457e060405160405180910390a380600160006101000a81548173ffffffffffffffffffffffffffffffffffffffff021916908373ffffffffffffffffffffffffffffffffffffffff16021790555050565b60008260000160008373ffffffffffffffffffffffffffffffffffffffff1673ffffffffffffffffffffffffffffffffffffffff16815260200190815260200160002060006101000a81548160ff0219169083151502179055505050565b600080611de083611dce8660001916612146565b6000191661220190919063ffffffff16565b9050611e21816040805190810160405280600781526020017f626f756e636572000000000000000000000000000000000000000000000000008152506109b9565b91505092915050565b60018260000160008373ffffffffffffffffffffffffffffffffffffffff1673ffffffffffffffffffffffffffffffffffffffff16815260200190815260200160002060006101000a81548160ff0219169083151502179055505050565b6040805190810160405280600781526020017f4f776e61626c65000000000000000000000000000000000000000000000000008152506040805190810160405280600581526020017f312e392e30000000000000000000000000000000000000000000000000000000815250611efe8282610cd2565b151515611f0a57600080fd5b82600160006101000a81548173ffffffffffffffffffffffffffffffffffffffff021916908373ffffffffffffffffffffffffffffffffffffffff1602179055507fdd117a11c22118c9dee4b5a67ce578bc44529dce21ee0ccc439588fbb9fb4ea38282604051808060200180602001838103835285818151815260200191508051906020019080838360005b83811015611fb2578082015181840152602081019050611f97565b50505050905090810190601f168015611fdf5780820380516001836020036101000a031916815260200191505b50838103825284818151815260200191508051906020019080838360005b83811015612018578082015181840152602081019050611ffd565b50505050905090810190601f1680156120455780820380516001836020036101000a031916815260200191505b5094505050505060405180910390a160016000836040518082805190602001908083835b60208310151561208e5780518252602082019150602081019050602083039250612069565b6001836020036101000a0380198251168184511680821785525050505050509050019150509081526020016040518091039020826040518082805190602001908083835b6020831015156120f757805182526020820191506020810190506020830392506120d2565b6001836020036101000a038019825116818451168082178552505050505050905001915050908152602001604051809103902060006101000a81548160ff021916908315150217905550505050565b60008160405160200180807f19457468657265756d205369676e6564204d6573736167653a0a333200000000815250601c0182600019166000191681526020019150506040516020818303038152906040526040518082805190602001908083835b6020831015156121cd57805182526020820191506020810190506020830392506121a8565b6001836020036101000a03801982511681845116808217855250505050505090500191505060405180910390209050919050565b6000806000806041855114151561221b57600093506122f0565b6020850151925060408501519150606085015160001a9050601b8160ff16101561224657601b810190505b601b8160ff161415801561225e5750601c8160ff1614155b1561226c57600093506122f0565b600186828585604051600081526020016040526040518085600019166000191681526020018460ff1660ff1681526020018360001916600019168152602001826000191660001916815260200194505050505060206040516020810390808403906000865af11580156122e3573d6000803e3d6000fd5b5050506020604051035193505b505050929150505600a165627a7a723058207c665db18eb6a2985cc0f23af09e0a147aab24707c272eca405879961ec49fa60029",
  "source": "pragma solidity ^0.4.24;\n\nimport \"../access/SignatureBouncer.sol\";\n\n\ncontract SignatureBouncerMock is SignatureBouncer {\n  function initialize(address _sender)\n    isInitializer(\"SignatureBouncerMock\", \"1.9.0\")\n    public\n  {\n    SignatureBouncer.initialize(_sender);\n  }\n\n  function checkValidSignature(address _address, bytes _sig)\n    public\n    view\n    returns (bool)\n  {\n    return isValidSignature(_address, _sig);\n  }\n\n  function onlyWithValidSignature(bytes _sig)\n    onlyValidSignature(_sig)\n    public\n    view\n  {\n\n  }\n\n  function checkValidSignatureAndMethod(address _address, bytes _sig)\n    public\n    view\n    returns (bool)\n  {\n    return isValidSignatureAndMethod(_address, _sig);\n  }\n\n  function onlyWithValidSignatureAndMethod(bytes _sig)\n    onlyValidSignatureAndMethod(_sig)\n    public\n    view\n  {\n\n  }\n\n  function checkValidSignatureAndData(address _address, bytes _bytes, uint _val, bytes _sig)\n    public\n    view\n    returns (bool)\n  {\n    return isValidSignatureAndData(_address, _sig);\n  }\n\n  function onlyWithValidSignatureAndData(uint _val, bytes _sig)\n    onlyValidSignatureAndData(_sig)\n    public\n    view\n  {\n\n  }\n}\n",
  "sourcePath": "/home/spalladino/Projects/openzeppelin-zos/contracts/mocks/BouncerMock.sol",
  "compiler": {
    "name": "solc",
    "version": "0.4.24+commit.e67f0147.Emscripten.clang"
  },
  "schemaVersion": "2.0.0",
  "updatedAt": "2018-08-27T15:38:42.520Z"
}